{
  "_format": "hh-sol-artifact-1",
  "contractName": "RPS",
  "sourceName": "contracts/RPS.sol",
  "abi": [
    {
      "inputs": [
        {
          "internalType": "address",
          "name": "_player1Address",
          "type": "address"
        },
        {
          "internalType": "address",
          "name": "_player2Address",
          "type": "address"
        },
        {
          "internalType": "uint256",
          "name": "_buyIn",
          "type": "uint256"
        },
        {
          "internalType": "address",
          "name": "_tokenContract",
          "type": "address"
        }
      ],
      "stateMutability": "nonpayable",
      "type": "constructor"
    },
    {
      "anonymous": false,
      "inputs": [
        {
          "indexed": false,
          "internalType": "address",
          "name": "_player",
          "type": "address"
        }
      ],
      "name": "moveCommited",
      "type": "event"
    },
    {
      "anonymous": false,
      "inputs": [
        {
          "indexed": false,
          "internalType": "address",
          "name": "_player",
          "type": "address"
        },
        {
          "indexed": false,
          "internalType": "string",
          "name": "_move",
          "type": "string"
        }
      ],
      "name": "moveRevealed",
      "type": "event"
    },
    {
      "anonymous": false,
      "inputs": [
        {
          "indexed": false,
          "internalType": "uint256",
          "name": "_buyIn",
          "type": "uint256"
        }
      ],
      "name": "rematchTriggered",
      "type": "event"
    },
    {
      "anonymous": false,
      "inputs": [
        {
          "indexed": false,
          "internalType": "address",
          "name": "_winner",
          "type": "address"
        },
        {
          "indexed": false,
          "internalType": "uint256",
          "name": "_timestamp",
          "type": "uint256"
        }
      ],
      "name": "winnerSelected",
      "type": "event"
    },
    {
      "inputs": [],
      "name": "SlingBux",
      "outputs": [
        {
          "internalType": "contract IERC20",
          "name": "",
          "type": "address"
        }
      ],
      "stateMutability": "view",
      "type": "function"
    },
    {
      "inputs": [],
      "name": "buyIn",
      "outputs": [
        {
          "internalType": "uint256",
          "name": "",
          "type": "uint256"
        }
      ],
      "stateMutability": "view",
      "type": "function"
    },
    {
      "inputs": [
        {
          "internalType": "bytes32",
          "name": "_move",
          "type": "bytes32"
        }
      ],
      "name": "commitMove",
      "outputs": [
        {
          "internalType": "bool",
          "name": "success",
          "type": "bool"
        }
      ],
      "stateMutability": "nonpayable",
      "type": "function"
    },
    {
      "inputs": [],
      "name": "gameIsLive",
      "outputs": [
        {
          "internalType": "bool",
          "name": "",
          "type": "bool"
        }
      ],
      "stateMutability": "view",
      "type": "function"
    },
    {
      "inputs": [
        {
          "internalType": "uint256",
          "name": "",
          "type": "uint256"
        }
      ],
      "name": "players",
      "outputs": [
        {
          "internalType": "address",
          "name": "addr",
          "type": "address"
        },
        {
          "internalType": "bytes32",
          "name": "commit",
          "type": "bytes32"
        },
        {
          "internalType": "string",
          "name": "revealed",
          "type": "string"
        },
        {
          "internalType": "uint256",
          "name": "staked",
          "type": "uint256"
        },
        {
          "internalType": "uint256",
          "name": "winnings",
          "type": "uint256"
        }
      ],
      "stateMutability": "view",
      "type": "function"
    },
    {
      "inputs": [
        {
          "internalType": "uint256",
          "name": "_newBuyIn",
          "type": "uint256"
        }
      ],
      "name": "rematch",
      "outputs": [
        {
          "internalType": "bool",
          "name": "success",
          "type": "bool"
        }
      ],
      "stateMutability": "nonpayable",
      "type": "function"
    },
    {
      "inputs": [
        {
          "internalType": "string",
          "name": "_move",
          "type": "string"
        },
        {
          "internalType": "string",
          "name": "_seed",
          "type": "string"
        }
      ],
      "name": "revealMove",
      "outputs": [
        {
          "internalType": "bool",
          "name": "success",
          "type": "bool"
        }
      ],
      "stateMutability": "nonpayable",
      "type": "function"
    },
    {
      "inputs": [],
      "name": "timeLimit",
      "outputs": [
        {
          "internalType": "uint256",
          "name": "",
          "type": "uint256"
        }
      ],
      "stateMutability": "view",
      "type": "function"
    },
    {
      "inputs": [],
      "name": "winner",
      "outputs": [
        {
          "internalType": "address",
          "name": "",
          "type": "address"
        }
      ],
      "stateMutability": "view",
      "type": "function"
    },
    {
      "inputs": [],
      "name": "withdrawStake",
      "outputs": [
        {
          "internalType": "bool",
          "name": "success",
          "type": "bool"
        }
      ],
      "stateMutability": "nonpayable",
      "type": "function"
    },
    {
      "inputs": [],
      "name": "withdrawWinnings",
      "outputs": [
        {
          "internalType": "bool",
          "name": "success",
          "type": "bool"
        }
      ],
      "stateMutability": "nonpayable",
      "type": "function"
    }
  ],
  "bytecode": "0x60806040526001600e60006101000a81548160ff02191690831515021790555060006010553480156200003157600080fd5b5060405162003c9b38038062003c9b8339818101604052810190620000579190620005af565b60405180604001604052806000815260200160011515815250600c604051620000809062000690565b90815260200160405180910390206000820151816000015560208201518160010160006101000a81548160ff02191690831515021790555090505060405180604001604052806001815260200160011515815250600c604051620000e490620006be565b90815260200160405180910390206000820151816000015560208201518160010160006101000a81548160ff02191690831515021790555090505060405180604001604052806002815260200160011515815250600c6040516200014890620006a7565b90815260200160405180910390206000820151816000015560208201518160010160006101000a81548160ff0219169083151502179055509050506040518060a001604052808573ffffffffffffffffffffffffffffffffffffffff168152602001600080191681526020016040518060200160405280600081525081526020016000815260200160008152506000806002811062000210577f4e487b7100000000000000000000000000000000000000000000000000000000600052603260045260246000fd5b6005020160008201518160000160006101000a81548173ffffffffffffffffffffffffffffffffffffffff021916908373ffffffffffffffffffffffffffffffffffffffff16021790555060208201518160010155604082015181600201908051906020019062000283929190620004d1565b5060608201518160030155608082015181600401559050506040518060a001604052808473ffffffffffffffffffffffffffffffffffffffff16815260200160008019168152602001604051806020016040528060008152508152602001600081526020016000815250600060016002811062000329577f4e487b7100000000000000000000000000000000000000000000000000000000600052603260045260246000fd5b6005020160008201518160000160006101000a81548173ffffffffffffffffffffffffffffffffffffffff021916908373ffffffffffffffffffffffffffffffffffffffff1602179055506020820151816001015560408201518160020190805190602001906200039c929190620004d1565b50606082015181600301556080820151816004015590505081600d8190555080600b60006101000a81548173ffffffffffffffffffffffffffffffffffffffff021916908373ffffffffffffffffffffffffffffffffffffffff1602179055506000600a60008673ffffffffffffffffffffffffffffffffffffffff1673ffffffffffffffffffffffffffffffffffffffff168152602001908152602001600020819055506001600a60008573ffffffffffffffffffffffffffffffffffffffff1673ffffffffffffffffffffffffffffffffffffffff1681526020019081526020016000208190555083600f60006101000a81548173ffffffffffffffffffffffffffffffffffffffff021916908373ffffffffffffffffffffffffffffffffffffffff1602179055505050505062000832565b828054620004df906200071e565b90600052602060002090601f0160209004810192826200050357600085556200054f565b82601f106200051e57805160ff19168380011785556200054f565b828001600101855582156200054f579182015b828111156200054e57825182559160200191906001019062000531565b5b5090506200055e919062000562565b5090565b5b808211156200057d57600081600090555060010162000563565b5090565b6000815190506200059281620007fe565b92915050565b600081519050620005a98162000818565b92915050565b60008060008060808587031215620005c657600080fd5b6000620005d68782880162000581565b9450506020620005e98782880162000581565b9350506040620005fc8782880162000598565b92505060606200060f8782880162000581565b91505092959194509250565b60006200062a600483620006d5565b9150620006378262000783565b600482019050919050565b600062000651600883620006d5565b91506200065e82620007ac565b600882019050919050565b600062000678600583620006d5565b91506200068582620007d5565b600582019050919050565b60006200069d826200061b565b9150819050919050565b6000620006b48262000642565b9150819050919050565b6000620006cb8262000669565b9150819050919050565b600081905092915050565b6000620006ed82620006f4565b9050919050565b600073ffffffffffffffffffffffffffffffffffffffff82169050919050565b6000819050919050565b600060028204905060018216806200073757607f821691505b602082108114156200074e576200074d62000754565b5b50919050565b7f4e487b7100000000000000000000000000000000000000000000000000000000600052602260045260246000fd5b7f726f636b00000000000000000000000000000000000000000000000000000000600082015250565b7f73636973736f7273000000000000000000000000000000000000000000000000600082015250565b7f7061706572000000000000000000000000000000000000000000000000000000600082015250565b6200080981620006e0565b81146200081557600080fd5b50565b620008238162000714565b81146200082f57600080fd5b50565b61345980620008426000396000f3fe608060405234801561001057600080fd5b50600436106100a95760003560e01c8063c08d1fe511610071578063c08d1fe51461017a578063cc42e83a14610198578063d175c93e146101b6578063d414d0c2146101d4578063dfbf53ae146101f2578063f71d96cb14610210576100a9565b806353aab434146100ae57806370a90220146100cc57806375c8915e146100fc578063a9ea37b61461012c578063bed9d8611461015c575b600080fd5b6100b6610244565b6040516100c39190612e4e565b60405180910390f35b6100e660048036038101906100e1919061287f565b61024a565b6040516100f39190612cf8565b60405180910390f35b61011660048036038101906101119190612813565b61062a565b6040516101239190612cf8565b60405180910390f35b610146600480360381019061014191906127ea565b610c0d565b6040516101539190612cf8565b60405180910390f35b610164611038565b6040516101719190612cf8565b60405180910390f35b6101826115e0565b60405161018f9190612e4e565b60405180910390f35b6101a06115e6565b6040516101ad9190612cf8565b60405180910390f35b6101be61199c565b6040516101cb9190612d13565b60405180910390f35b6101dc6119c2565b6040516101e99190612cf8565b60405180910390f35b6101fa6119d5565b6040516102079190612bca565b60405180910390f35b61022a6004803603810190610225919061287f565b6119fb565b60405161023b959493929190612c45565b60405180910390f35b600d5481565b600080600060028110610286577f4e487b7100000000000000000000000000000000000000000000000000000000600052603260045260246000fd5b6005020160000160009054906101000a900473ffffffffffffffffffffffffffffffffffffffff1673ffffffffffffffffffffffffffffffffffffffff163373ffffffffffffffffffffffffffffffffffffffff1614806103745750600060016002811061031d577f4e487b7100000000000000000000000000000000000000000000000000000000600052603260045260246000fd5b6005020160000160009054906101000a900473ffffffffffffffffffffffffffffffffffffffff1673ffffffffffffffffffffffffffffffffffffffff163373ffffffffffffffffffffffffffffffffffffffff16145b61037d57600080fd5b600e60009054906101000a900460ff16156103cd576040517f08c379a00000000000000000000000000000000000000000000000000000000081526004016103c490612e0e565b60405180910390fd5b816103d733611adf565b116103e157600080fd5b81600d819055506103f133611c1f565b6000600e60016101000a81548173ffffffffffffffffffffffffffffffffffffffff021916908373ffffffffffffffffffffffffffffffffffffffff16021790555033600f60006101000a81548173ffffffffffffffffffffffffffffffffffffffff021916908373ffffffffffffffffffffffffffffffffffffffff1602179055506001600e60006101000a81548160ff0219169083151502179055506000806000600281106104cb577f4e487b7100000000000000000000000000000000000000000000000000000000600052603260045260246000fd5b60050201600101819055506040518060200160405280600081525060008060028110610520577f4e487b7100000000000000000000000000000000000000000000000000000000600052603260045260246000fd5b60050201600201908051906020019061053a929190612662565b50600080600160028110610577577f4e487b7100000000000000000000000000000000000000000000000000000000600052603260045260246000fd5b60050201600101819055506040518060200160405280600081525060006001600281106105cd577f4e487b7100000000000000000000000000000000000000000000000000000000600052603260045260246000fd5b6005020160020190805190602001906105e7929190612662565b507f3336f03e4fc843d8e7ca9b77bc0c94214316349ad774cacc5cd7673ad6554fbf600d546040516106199190612e4e565b60405180910390a160019050919050565b600080600060028110610666577f4e487b7100000000000000000000000000000000000000000000000000000000600052603260045260246000fd5b6005020160000160009054906101000a900473ffffffffffffffffffffffffffffffffffffffff1673ffffffffffffffffffffffffffffffffffffffff163373ffffffffffffffffffffffffffffffffffffffff161480610754575060006001600281106106fd577f4e487b7100000000000000000000000000000000000000000000000000000000600052603260045260246000fd5b6005020160000160009054906101000a900473ffffffffffffffffffffffffffffffffffffffff1673ffffffffffffffffffffffffffffffffffffffff163373ffffffffffffffffffffffffffffffffffffffff16145b61075d57600080fd5b610765611f13565b6107a4576040517f08c379a000000000000000000000000000000000000000000000000000000000815260040161079b90612dce565b60405180910390fd5b600e60009054906101000a900460ff166107f3576040517f08c379a00000000000000000000000000000000000000000000000000000000081526004016107ea90612d2e565b60405180910390fd5b6000600a60003373ffffffffffffffffffffffffffffffffffffffff1673ffffffffffffffffffffffffffffffffffffffff16815260200190815260200160002054905060008160028110610871577f4e487b7100000000000000000000000000000000000000000000000000000000600052603260045260246000fd5b6005020160010154848460405160200161088c929190612b7a565b60405160208183030381529060405280519060200120146108e2576040517f08c379a00000000000000000000000000000000000000000000000000000000081526004016108d990612dae565b60405180910390fd5b836000826002811061091d577f4e487b7100000000000000000000000000000000000000000000000000000000600052603260045260246000fd5b600502016002019080519060200190610937929190612662565b5062015180426109479190612efb565b6010819055507fe00e1d9caf5229c079c177f31df2f11066659f9bd1300417499487adc4058b6e338560405161097e929190612c9f565b60405180910390a1600c846040516109969190612b63565b908152602001604051809103902060010160009054906101000a900460ff16610bf9576000811415610ad957600d5460026109d19190612f51565b6000600160028110610a0c577f4e487b7100000000000000000000000000000000000000000000000000000000600052603260045260246000fd5b600502016004016000828254610a229190612efb565b925050819055506000600160028110610a64577f4e487b7100000000000000000000000000000000000000000000000000000000600052603260045260246000fd5b6005020160000160009054906101000a900473ffffffffffffffffffffffffffffffffffffffff16600e60016101000a81548173ffffffffffffffffffffffffffffffffffffffff021916908373ffffffffffffffffffffffffffffffffffffffff160217905550610ad4611fb9565b610bf4565b6001811415610bf357600d546002610af19190612f51565b60008060028110610b2b577f4e487b7100000000000000000000000000000000000000000000000000000000600052603260045260246000fd5b600502016004016000828254610b419190612efb565b9250508190555060008060028110610b82577f4e487b7100000000000000000000000000000000000000000000000000000000600052603260045260246000fd5b6005020160000160009054906101000a900473ffffffffffffffffffffffffffffffffffffffff16600e60016101000a81548173ffffffffffffffffffffffffffffffffffffffff021916908373ffffffffffffffffffffffffffffffffffffffff160217905550610bf2611fb9565b5b5b610c02565b610c01612064565b5b600191505092915050565b600080600060028110610c49577f4e487b7100000000000000000000000000000000000000000000000000000000600052603260045260246000fd5b6005020160000160009054906101000a900473ffffffffffffffffffffffffffffffffffffffff1673ffffffffffffffffffffffffffffffffffffffff163373ffffffffffffffffffffffffffffffffffffffff161480610d3757506000600160028110610ce0577f4e487b7100000000000000000000000000000000000000000000000000000000600052603260045260246000fd5b6005020160000160009054906101000a900473ffffffffffffffffffffffffffffffffffffffff1673ffffffffffffffffffffffffffffffffffffffff163373ffffffffffffffffffffffffffffffffffffffff16145b610d4057600080fd5b610dc96000600a60003373ffffffffffffffffffffffffffffffffffffffff1673ffffffffffffffffffffffffffffffffffffffff1681526020019081526020016000205460028110610dbc577f4e487b7100000000000000000000000000000000000000000000000000000000600052603260045260246000fd5b6005020160010154612600565b610e08576040517f08c379a0000000000000000000000000000000000000000000000000000000008152600401610dff90612e2e565b60405180910390fd5b600d546000600a60003373ffffffffffffffffffffffffffffffffffffffff1673ffffffffffffffffffffffffffffffffffffffff1681526020019081526020016000205460028110610e84577f4e487b7100000000000000000000000000000000000000000000000000000000600052603260045260246000fd5b60050201600301541015610f7257600d54610e9e33611adf565b1015610edf576040517f08c379a0000000000000000000000000000000000000000000000000000000008152600401610ed690612d4e565b60405180910390fd5b610ee833611c1f565b816000600a60003373ffffffffffffffffffffffffffffffffffffffff1673ffffffffffffffffffffffffffffffffffffffff1681526020019081526020016000205460028110610f62577f4e487b7100000000000000000000000000000000000000000000000000000000600052603260045260246000fd5b6005020160010181905550610ff8565b816000600a60003373ffffffffffffffffffffffffffffffffffffffff1673ffffffffffffffffffffffffffffffffffffffff1681526020019081526020016000205460028110610fec577f4e487b7100000000000000000000000000000000000000000000000000000000600052603260045260246000fd5b60050201600101819055505b7f014d61d52a3b2c3792e04a2fd3f6180293520fc6c9523949e0262a7c0b3fd986336040516110279190612bca565b60405180910390a160019050919050565b600080600060028110611074577f4e487b7100000000000000000000000000000000000000000000000000000000600052603260045260246000fd5b6005020160000160009054906101000a900473ffffffffffffffffffffffffffffffffffffffff1673ffffffffffffffffffffffffffffffffffffffff163373ffffffffffffffffffffffffffffffffffffffff1614806111625750600060016002811061110b577f4e487b7100000000000000000000000000000000000000000000000000000000600052603260045260246000fd5b6005020160000160009054906101000a900473ffffffffffffffffffffffffffffffffffffffff1673ffffffffffffffffffffffffffffffffffffffff163373ffffffffffffffffffffffffffffffffffffffff16145b61116b57600080fd5b600e60009054906101000a900460ff166111ba576040517f08c379a00000000000000000000000000000000000000000000000000000000081526004016111b190612d6e565b60405180910390fd5b6111c2611f13565b15801561121c5750600f60009054906101000a900473ffffffffffffffffffffffffffffffffffffffff1673ffffffffffffffffffffffffffffffffffffffff163373ffffffffffffffffffffffffffffffffffffffff16145b80156112ca5750600080600a6000600f60009054906101000a900473ffffffffffffffffffffffffffffffffffffffff1673ffffffffffffffffffffffffffffffffffffffff1673ffffffffffffffffffffffffffffffffffffffff16815260200190815260200160002054600281106112bf577f4e487b7100000000000000000000000000000000000000000000000000000000600052603260045260246000fd5b600502016003015414155b8061140057506112d8611f13565b80156113f257506113f06000600a60003373ffffffffffffffffffffffffffffffffffffffff1673ffffffffffffffffffffffffffffffffffffffff168152602001908152602001600020546002811061135b577f4e487b7100000000000000000000000000000000000000000000000000000000600052603260045260246000fd5b60050201600201805461136d90613097565b80601f016020809104026020016040519081016040528092919081815260200182805461139990613097565b80156113e65780601f106113bb576101008083540402835291602001916113e6565b820191906000526020600020905b8154815290600101906020018083116113c957829003601f168201915b505050505061260c565b155b80156113ff575042601054105b5b61143f576040517f08c379a000000000000000000000000000000000000000000000000000000000815260040161143690612d8e565b60405180910390fd5b600b60009054906101000a900473ffffffffffffffffffffffffffffffffffffffff1673ffffffffffffffffffffffffffffffffffffffff1663a9059cbb33611486611f13565b611510576000600a60003373ffffffffffffffffffffffffffffffffffffffff1673ffffffffffffffffffffffffffffffffffffffff1681526020019081526020016000205460028110611503577f4e487b7100000000000000000000000000000000000000000000000000000000600052603260045260246000fd5b6005020160030154611520565b6002600d5461151f9190612f51565b5b6040518363ffffffff1660e01b815260040161153d929190612ccf565b602060405180830381600087803b15801561155757600080fd5b505af115801561156b573d6000803e3d6000fd5b505050506040513d601f19601f8201168201806040525081019061158f91906127c1565b5033600e60016101000a81548173ffffffffffffffffffffffffffffffffffffffff021916908373ffffffffffffffffffffffffffffffffffffffff1602179055506115d9611fb9565b6001905090565b60105481565b600080600060028110611622577f4e487b7100000000000000000000000000000000000000000000000000000000600052603260045260246000fd5b6005020160000160009054906101000a900473ffffffffffffffffffffffffffffffffffffffff1673ffffffffffffffffffffffffffffffffffffffff163373ffffffffffffffffffffffffffffffffffffffff161480611710575060006001600281106116b9577f4e487b7100000000000000000000000000000000000000000000000000000000600052603260045260246000fd5b6005020160000160009054906101000a900473ffffffffffffffffffffffffffffffffffffffff1673ffffffffffffffffffffffffffffffffffffffff163373ffffffffffffffffffffffffffffffffffffffff16145b61171957600080fd5b600080600a60003373ffffffffffffffffffffffffffffffffffffffff1673ffffffffffffffffffffffffffffffffffffffff1681526020019081526020016000205460028110611793577f4e487b7100000000000000000000000000000000000000000000000000000000600052603260045260246000fd5b6005020160040154116117db576040517f08c379a00000000000000000000000000000000000000000000000000000000081526004016117d290612dee565b60405180910390fd5b600080600a60003373ffffffffffffffffffffffffffffffffffffffff1673ffffffffffffffffffffffffffffffffffffffff1681526020019081526020016000205460028110611855577f4e487b7100000000000000000000000000000000000000000000000000000000600052603260045260246000fd5b60050201600401549050600080600a60003373ffffffffffffffffffffffffffffffffffffffff1673ffffffffffffffffffffffffffffffffffffffff16815260200190815260200160002054600281106118d9577f4e487b7100000000000000000000000000000000000000000000000000000000600052603260045260246000fd5b6005020160040181905550600b60009054906101000a900473ffffffffffffffffffffffffffffffffffffffff1673ffffffffffffffffffffffffffffffffffffffff1663a9059cbb33836040518363ffffffff1660e01b8152600401611941929190612ccf565b602060405180830381600087803b15801561195b57600080fd5b505af115801561196f573d6000803e3d6000fd5b505050506040513d601f19601f8201168201806040525081019061199391906127c1565b50600191505090565b600b60009054906101000a900473ffffffffffffffffffffffffffffffffffffffff1681565b600e60009054906101000a900460ff1681565b600e60019054906101000a900473ffffffffffffffffffffffffffffffffffffffff1681565b60008160028110611a0b57600080fd5b600502016000915090508060000160009054906101000a900473ffffffffffffffffffffffffffffffffffffffff1690806001015490806002018054611a5090613097565b80601f0160208091040260200160405190810160405280929190818152602001828054611a7c90613097565b8015611ac95780601f10611a9e57610100808354040283529160200191611ac9565b820191906000526020600020905b815481529060010190602001808311611aac57829003601f168201915b5050505050908060030154908060040154905085565b600080600a60008473ffffffffffffffffffffffffffffffffffffffff1673ffffffffffffffffffffffffffffffffffffffff1681526020019081526020016000205460028110611b59577f4e487b7100000000000000000000000000000000000000000000000000000000600052603260045260246000fd5b6005020160040154600b60009054906101000a900473ffffffffffffffffffffffffffffffffffffffff1673ffffffffffffffffffffffffffffffffffffffff1663dd62ed3e84306040518363ffffffff1660e01b8152600401611bbe929190612be5565b60206040518083038186803b158015611bd657600080fd5b505afa158015611bea573d6000803e3d6000fd5b505050506040513d601f19601f82011682018060405250810190611c0e91906128a8565b611c189190612efb565b9050919050565b600080600a60008473ffffffffffffffffffffffffffffffffffffffff1673ffffffffffffffffffffffffffffffffffffffff1681526020019081526020016000205460028110611c99577f4e487b7100000000000000000000000000000000000000000000000000000000600052603260045260246000fd5b60050201600401549050600d548110611d4357600d5481611cba9190612fab565b6000600a60008573ffffffffffffffffffffffffffffffffffffffff1673ffffffffffffffffffffffffffffffffffffffff1681526020019081526020016000205460028110611d33577f4e487b7100000000000000000000000000000000000000000000000000000000600052603260045260246000fd5b6005020160040181905550611e88565b600b60009054906101000a900473ffffffffffffffffffffffffffffffffffffffff1673ffffffffffffffffffffffffffffffffffffffff166323b872dd833084600d54611d919190612fab565b6040518463ffffffff1660e01b8152600401611daf93929190612c0e565b602060405180830381600087803b158015611dc957600080fd5b505af1158015611ddd573d6000803e3d6000fd5b505050506040513d601f19601f82011682018060405250810190611e0191906127c1565b50600080600a60008573ffffffffffffffffffffffffffffffffffffffff1673ffffffffffffffffffffffffffffffffffffffff1681526020019081526020016000205460028110611e7c577f4e487b7100000000000000000000000000000000000000000000000000000000600052603260045260246000fd5b60050201600401819055505b600d546000600a60003373ffffffffffffffffffffffffffffffffffffffff1673ffffffffffffffffffffffffffffffffffffffff1681526020019081526020016000205460028110611f04577f4e487b7100000000000000000000000000000000000000000000000000000000600052603260045260246000fd5b60050201600301819055505050565b6000611f5f60008060028110611f52577f4e487b7100000000000000000000000000000000000000000000000000000000600052603260045260246000fd5b6005020160010154612600565b158015611fb45750611fb26000600160028110611fa5577f4e487b7100000000000000000000000000000000000000000000000000000000600052603260045260246000fd5b6005020160010154612600565b155b905090565b600080600060028110611ff5577f4e487b7100000000000000000000000000000000000000000000000000000000600052603260045260246000fd5b600502016003018190555060008060016002811061203c577f4e487b7100000000000000000000000000000000000000000000000000000000600052603260045260246000fd5b60050201600301819055506000600e60006101000a81548160ff021916908315150217905550565b61213760006001600281106120a2577f4e487b7100000000000000000000000000000000000000000000000000000000600052603260045260246000fd5b6005020160020180546120b490613097565b80601f01602080910402602001604051908101604052809291908181526020018280546120e090613097565b801561212d5780601f106121025761010080835404028352916020019161212d565b820191906000526020600020905b81548152906001019060200180831161211057829003601f168201915b505050505061260c565b15801561221357506122116000806002811061217c577f4e487b7100000000000000000000000000000000000000000000000000000000600052603260045260246000fd5b60050201600201805461218e90613097565b80601f01602080910402602001604051908101604052809291908181526020018280546121ba90613097565b80156122075780601f106121dc57610100808354040283529160200191612207565b820191906000526020600020905b8154815290600101906020018083116121ea57829003601f168201915b505050505061260c565b155b156125fe576000600c60008060028110612256577f4e487b7100000000000000000000000000000000000000000000000000000000600052603260045260246000fd5b6005020160020160405161226a9190612b9e565b90815260200160405180910390206000015490506000600c60006001600281106122bd577f4e487b7100000000000000000000000000000000000000000000000000000000600052603260045260246000fd5b600502016002016040516122d19190612b9e565b90815260200160405180910390206000015490508082146124e25760036001826122fb9190612efb565b61230591906130fa565b8214612373576000600160028110612346577f4e487b7100000000000000000000000000000000000000000000000000000000600052603260045260246000fd5b6005020160000160009054906101000a900473ffffffffffffffffffffffffffffffffffffffff166123d6565b600080600281106123ad577f4e487b7100000000000000000000000000000000000000000000000000000000600052603260045260246000fd5b6005020160000160009054906101000a900473ffffffffffffffffffffffffffffffffffffffff165b600e60016101000a81548173ffffffffffffffffffffffffffffffffffffffff021916908373ffffffffffffffffffffffffffffffffffffffff1602179055506002600d546124259190612f51565b6000600a6000600e60019054906101000a900473ffffffffffffffffffffffffffffffffffffffff1673ffffffffffffffffffffffffffffffffffffffff1673ffffffffffffffffffffffffffffffffffffffff16815260200190815260200160002054600281106124c0577f4e487b7100000000000000000000000000000000000000000000000000000000600052603260045260246000fd5b6005020160040160008282546124d69190612efb565b92505081905550612598565b600d546000806002811061251f577f4e487b7100000000000000000000000000000000000000000000000000000000600052603260045260246000fd5b6005020160040160008282546125359190612efb565b92505081905550600d54600060016002811061257a577f4e487b7100000000000000000000000000000000000000000000000000000000600052603260045260246000fd5b6005020160040160008282546125909190612efb565b925050819055505b7f55f5b627439ea7e61a062304e180620655850a1483013dc935ea17f07f0c40ca600e60019054906101000a900473ffffffffffffffffffffffffffffffffffffffff16426040516125eb929190612ccf565b60405180910390a16125fb611fb9565b50505b565b60008082149050919050565b600060405160200161261d90612bb5565b60405160208183030381529060405280519060200120826040516020016126449190612b63565b60405160208183030381529060405280519060200120149050919050565b82805461266e90613097565b90600052602060002090601f01602090048101928261269057600085556126d7565b82601f106126a957805160ff19168380011785556126d7565b828001600101855582156126d7579182015b828111156126d65782518255916020019190600101906126bb565b5b5090506126e491906126e8565b5090565b5b808211156127015760008160009055506001016126e9565b5090565b600061271861271384612e8e565b612e69565b90508281526020810184848401111561273057600080fd5b61273b848285613055565b509392505050565b600081519050612752816133de565b92915050565b600081359050612767816133f5565b92915050565b600082601f83011261277e57600080fd5b813561278e848260208601612705565b91505092915050565b6000813590506127a68161340c565b92915050565b6000815190506127bb8161340c565b92915050565b6000602082840312156127d357600080fd5b60006127e184828501612743565b91505092915050565b6000602082840312156127fc57600080fd5b600061280a84828501612758565b91505092915050565b6000806040838503121561282657600080fd5b600083013567ffffffffffffffff81111561284057600080fd5b61284c8582860161276d565b925050602083013567ffffffffffffffff81111561286957600080fd5b6128758582860161276d565b9150509250929050565b60006020828403121561289157600080fd5b600061289f84828501612797565b91505092915050565b6000602082840312156128ba57600080fd5b60006128c8848285016127ac565b91505092915050565b6128da81612fdf565b82525050565b6128e981612ff1565b82525050565b6128f881612ffd565b82525050565b61290781613031565b82525050565b600061291882612ed4565b6129228185612edf565b9350612932818560208601613064565b61293b816131e7565b840191505092915050565b600061295182612ed4565b61295b8185612ef0565b935061296b818560208601613064565b80840191505092915050565b6000815461298481613097565b61298e8186612ef0565b945060018216600081146129a957600181146129ba576129ed565b60ff198316865281860193506129ed565b6129c385612ebf565b60005b838110156129e5578154818901526001820191506020810190506129c6565b838801955050505b50505092915050565b6000612a03601883612edf565b9150612a0e826131f8565b602082019050919050565b6000612a26602f83612edf565b9150612a3182613221565b604082019050919050565b6000612a49602a83612edf565b9150612a5482613270565b604082019050919050565b6000612a6c601e83612edf565b9150612a77826132bf565b602082019050919050565b6000612a8f601783612edf565b9150612a9a826132e8565b602082019050919050565b6000612ab2601983612edf565b9150612abd82613311565b602082019050919050565b6000612ad5600b83612edf565b9150612ae08261333a565b602082019050919050565b6000612af8600083612ef0565b9150612b0382613363565b600082019050919050565b6000612b1b602e83612edf565b9150612b2682613366565b604082019050919050565b6000612b3e601983612edf565b9150612b49826133b5565b602082019050919050565b612b5d81613027565b82525050565b6000612b6f8284612946565b915081905092915050565b6000612b868285612946565b9150612b928284612946565b91508190509392505050565b6000612baa8284612977565b915081905092915050565b6000612bc082612aeb565b9150819050919050565b6000602082019050612bdf60008301846128d1565b92915050565b6000604082019050612bfa60008301856128d1565b612c0760208301846128d1565b9392505050565b6000606082019050612c2360008301866128d1565b612c3060208301856128d1565b612c3d6040830184612b54565b949350505050565b600060a082019050612c5a60008301886128d1565b612c6760208301876128ef565b8181036040830152612c79818661290d565b9050612c886060830185612b54565b612c956080830184612b54565b9695505050505050565b6000604082019050612cb460008301856128d1565b8181036020830152612cc6818461290d565b90509392505050565b6000604082019050612ce460008301856128d1565b612cf16020830184612b54565b9392505050565b6000602082019050612d0d60008301846128e0565b92915050565b6000602082019050612d2860008301846128fe565b92915050565b60006020820190508181036000830152612d47816129f6565b9050919050565b60006020820190508181036000830152612d6781612a19565b9050919050565b60006020820190508181036000830152612d8781612a3c565b9050919050565b60006020820190508181036000830152612da781612a5f565b9050919050565b60006020820190508181036000830152612dc781612a82565b9050919050565b60006020820190508181036000830152612de781612aa5565b9050919050565b60006020820190508181036000830152612e0781612ac8565b9050919050565b60006020820190508181036000830152612e2781612b0e565b9050919050565b60006020820190508181036000830152612e4781612b31565b9050919050565b6000602082019050612e636000830184612b54565b92915050565b6000612e73612e84565b9050612e7f82826130c9565b919050565b6000604051905090565b600067ffffffffffffffff821115612ea957612ea86131b8565b5b612eb2826131e7565b9050602081019050919050565b60008190508160005260206000209050919050565b600081519050919050565b600082825260208201905092915050565b600081905092915050565b6000612f0682613027565b9150612f1183613027565b9250827fffffffffffffffffffffffffffffffffffffffffffffffffffffffffffffffff03821115612f4657612f4561312b565b5b828201905092915050565b6000612f5c82613027565b9150612f6783613027565b9250817fffffffffffffffffffffffffffffffffffffffffffffffffffffffffffffffff0483118215151615612fa057612f9f61312b565b5b828202905092915050565b6000612fb682613027565b9150612fc183613027565b925082821015612fd457612fd361312b565b5b828203905092915050565b6000612fea82613007565b9050919050565b60008115159050919050565b6000819050919050565b600073ffffffffffffffffffffffffffffffffffffffff82169050919050565b6000819050919050565b600061303c82613043565b9050919050565b600061304e82613007565b9050919050565b82818337600083830152505050565b60005b83811015613082578082015181840152602081019050613067565b83811115613091576000848401525b50505050565b600060028204905060018216806130af57607f821691505b602082108114156130c3576130c2613189565b5b50919050565b6130d2826131e7565b810181811067ffffffffffffffff821117156130f1576130f06131b8565b5b80604052505050565b600061310582613027565b915061311083613027565b9250826131205761311f61315a565b5b828206905092915050565b7f4e487b7100000000000000000000000000000000000000000000000000000000600052601160045260246000fd5b7f4e487b7100000000000000000000000000000000000000000000000000000000600052601260045260246000fd5b7f4e487b7100000000000000000000000000000000000000000000000000000000600052602260045260246000fd5b7f4e487b7100000000000000000000000000000000000000000000000000000000600052604160045260246000fd5b6000601f19601f8301169050919050565b7f57696e6e657220616c72656164792073656c65637465642e0000000000000000600082015250565b7f416c6c6f7765642062616c616e6365206e6f742073756666696369656e74206660008201527f6f722067616d65206465706f7369740000000000000000000000000000000000602082015250565b7f43616e206f6e6c79207769746864726177207374616b6520647572696e67206160008201527f206c6976652067616d6500000000000000000000000000000000000000000000602082015250565b7f5769746864726177616c20436f6e646974696f6e73206e6f74206d65742e0000600082015250565b7f4d6f766520646f65736e2774206d617463682068617368000000000000000000600082015250565b7f426f746820706c6179657273206d75737420636f6d6d69742e00000000000000600082015250565b7f4e6f2077696e6e696e6773000000000000000000000000000000000000000000600082015250565b50565b7f46696e697368206578697374696e672067616d65206265666f7265207374617260008201527f74696e6720612072656d61746368000000000000000000000000000000000000602082015250565b7f416c7265616479206d616465206120636f6d6d69746d656e7400000000000000600082015250565b6133e781612ff1565b81146133f257600080fd5b50565b6133fe81612ffd565b811461340957600080fd5b50565b61341581613027565b811461342057600080fd5b5056fea26469706673582212201606fbb18fbaf50b823c866d0092726ba042b4425022aa87db61f5b8005369b264736f6c63430008040033",
  "linkReferences": {},
  "deployedLinkReferences": {}
}